{
  "contractName": "Minting",
  "abi": [
    {
      "inputs": [
        {
          "internalType": "address",
          "name": "_token",
          "type": "address"
        },
        {
          "internalType": "address",
          "name": "_burnContract",
          "type": "address"
        }
      ],
      "stateMutability": "nonpayable",
      "type": "constructor"
    },
    {
      "anonymous": false,
      "inputs": [
        {
          "indexed": true,
          "internalType": "address",
          "name": "owner",
          "type": "address"
        },
        {
          "indexed": true,
          "internalType": "address",
          "name": "approved",
          "type": "address"
        },
        {
          "indexed": true,
          "internalType": "uint256",
          "name": "tokenId",
          "type": "uint256"
        }
      ],
      "name": "Approval",
      "type": "event"
    },
    {
      "anonymous": false,
      "inputs": [
        {
          "indexed": true,
          "internalType": "address",
          "name": "owner",
          "type": "address"
        },
        {
          "indexed": true,
          "internalType": "address",
          "name": "operator",
          "type": "address"
        },
        {
          "indexed": false,
          "internalType": "bool",
          "name": "approved",
          "type": "bool"
        }
      ],
      "name": "ApprovalForAll",
      "type": "event"
    },
    {
      "anonymous": false,
      "inputs": [
        {
          "indexed": true,
          "internalType": "address",
          "name": "sender",
          "type": "address"
        },
        {
          "indexed": false,
          "internalType": "uint256",
          "name": "amount",
          "type": "uint256"
        }
      ],
      "name": "Burn",
      "type": "event"
    },
    {
      "anonymous": false,
      "inputs": [
        {
          "indexed": true,
          "internalType": "address",
          "name": "sender",
          "type": "address"
        },
        {
          "indexed": false,
          "internalType": "uint256",
          "name": "amount",
          "type": "uint256"
        },
        {
          "indexed": false,
          "internalType": "uint256",
          "name": "claimTime",
          "type": "uint256"
        },
        {
          "indexed": false,
          "internalType": "uint256",
          "name": "nftId",
          "type": "uint256"
        }
      ],
      "name": "Claim",
      "type": "event"
    },
    {
      "anonymous": false,
      "inputs": [
        {
          "indexed": true,
          "internalType": "address",
          "name": "previousOwner",
          "type": "address"
        },
        {
          "indexed": true,
          "internalType": "address",
          "name": "newOwner",
          "type": "address"
        }
      ],
      "name": "OwnershipTransferred",
      "type": "event"
    },
    {
      "anonymous": false,
      "inputs": [
        {
          "indexed": false,
          "internalType": "uint8",
          "name": "yearsCount",
          "type": "uint8"
        },
        {
          "indexed": true,
          "internalType": "address",
          "name": "sender",
          "type": "address"
        },
        {
          "indexed": false,
          "internalType": "uint256",
          "name": "amount",
          "type": "uint256"
        },
        {
          "indexed": false,
          "internalType": "uint256",
          "name": "payoutFactor",
          "type": "uint256"
        },
        {
          "indexed": false,
          "internalType": "uint256",
          "name": "start",
          "type": "uint256"
        },
        {
          "indexed": false,
          "internalType": "uint256",
          "name": "end",
          "type": "uint256"
        },
        {
          "indexed": false,
          "internalType": "uint256",
          "name": "nftId",
          "type": "uint256"
        }
      ],
      "name": "Stake",
      "type": "event"
    },
    {
      "anonymous": false,
      "inputs": [
        {
          "indexed": true,
          "internalType": "address",
          "name": "from",
          "type": "address"
        },
        {
          "indexed": true,
          "internalType": "address",
          "name": "to",
          "type": "address"
        },
        {
          "indexed": true,
          "internalType": "uint256",
          "name": "tokenId",
          "type": "uint256"
        }
      ],
      "name": "Transfer",
      "type": "event"
    },
    {
      "inputs": [
        {
          "internalType": "address",
          "name": "to",
          "type": "address"
        },
        {
          "internalType": "uint256",
          "name": "tokenId",
          "type": "uint256"
        }
      ],
      "name": "approve",
      "outputs": [],
      "stateMutability": "nonpayable",
      "type": "function"
    },
    {
      "inputs": [
        {
          "internalType": "address",
          "name": "owner",
          "type": "address"
        }
      ],
      "name": "balanceOf",
      "outputs": [
        {
          "internalType": "uint256",
          "name": "",
          "type": "uint256"
        }
      ],
      "stateMutability": "view",
      "type": "function"
    },
    {
      "inputs": [],
      "name": "burnContract",
      "outputs": [
        {
          "internalType": "contract Burner",
          "name": "",
          "type": "address"
        }
      ],
      "stateMutability": "view",
      "type": "function"
    },
    {
      "inputs": [],
      "name": "burnFraction",
      "outputs": [
        {
          "internalType": "uint256",
          "name": "",
          "type": "uint256"
        }
      ],
      "stateMutability": "view",
      "type": "function"
    },
    {
      "inputs": [],
      "name": "burnPool",
      "outputs": [
        {
          "internalType": "uint256",
          "name": "",
          "type": "uint256"
        }
      ],
      "stateMutability": "view",
      "type": "function"
    },
    {
      "inputs": [],
      "name": "burnShare",
      "outputs": [
        {
          "internalType": "uint256",
          "name": "",
          "type": "uint256"
        }
      ],
      "stateMutability": "view",
      "type": "function"
    },
    {
      "inputs": [
        {
          "internalType": "uint8",
          "name": "",
          "type": "uint8"
        }
      ],
      "name": "configurations",
      "outputs": [
        {
          "internalType": "bool",
          "name": "active",
          "type": "bool"
        },
        {
          "internalType": "uint256",
          "name": "tokenFactor",
          "type": "uint256"
        },
        {
          "internalType": "uint256",
          "name": "signatureBonusMultiplier",
          "type": "uint256"
        }
      ],
      "stateMutability": "view",
      "type": "function"
    },
    {
      "inputs": [
        {
          "internalType": "uint256",
          "name": "tokenId",
          "type": "uint256"
        }
      ],
      "name": "getApproved",
      "outputs": [
        {
          "internalType": "address",
          "name": "",
          "type": "address"
        }
      ],
      "stateMutability": "view",
      "type": "function"
    },
    {
      "inputs": [
        {
          "internalType": "address",
          "name": "owner",
          "type": "address"
        },
        {
          "internalType": "address",
          "name": "operator",
          "type": "address"
        }
      ],
      "name": "isApprovedForAll",
      "outputs": [
        {
          "internalType": "bool",
          "name": "",
          "type": "bool"
        }
      ],
      "stateMutability": "view",
      "type": "function"
    },
    {
      "inputs": [],
      "name": "name",
      "outputs": [
        {
          "internalType": "string",
          "name": "",
          "type": "string"
        }
      ],
      "stateMutability": "view",
      "type": "function"
    },
    {
      "inputs": [],
      "name": "owner",
      "outputs": [
        {
          "internalType": "address",
          "name": "",
          "type": "address"
        }
      ],
      "stateMutability": "view",
      "type": "function"
    },
    {
      "inputs": [
        {
          "internalType": "uint256",
          "name": "tokenId",
          "type": "uint256"
        }
      ],
      "name": "ownerOf",
      "outputs": [
        {
          "internalType": "address",
          "name": "",
          "type": "address"
        }
      ],
      "stateMutability": "view",
      "type": "function"
    },
    {
      "inputs": [],
      "name": "remainingBurn",
      "outputs": [
        {
          "internalType": "uint256",
          "name": "",
          "type": "uint256"
        }
      ],
      "stateMutability": "view",
      "type": "function"
    },
    {
      "inputs": [],
      "name": "remainingPayout",
      "outputs": [
        {
          "internalType": "uint256",
          "name": "",
          "type": "uint256"
        }
      ],
      "stateMutability": "view",
      "type": "function"
    },
    {
      "inputs": [],
      "name": "renounceOwnership",
      "outputs": [],
      "stateMutability": "nonpayable",
      "type": "function"
    },
    {
      "inputs": [
        {
          "internalType": "address",
          "name": "from",
          "type": "address"
        },
        {
          "internalType": "address",
          "name": "to",
          "type": "address"
        },
        {
          "internalType": "uint256",
          "name": "tokenId",
          "type": "uint256"
        }
      ],
      "name": "safeTransferFrom",
      "outputs": [],
      "stateMutability": "nonpayable",
      "type": "function"
    },
    {
      "inputs": [
        {
          "internalType": "address",
          "name": "from",
          "type": "address"
        },
        {
          "internalType": "address",
          "name": "to",
          "type": "address"
        },
        {
          "internalType": "uint256",
          "name": "tokenId",
          "type": "uint256"
        },
        {
          "internalType": "bytes",
          "name": "_data",
          "type": "bytes"
        }
      ],
      "name": "safeTransferFrom",
      "outputs": [],
      "stateMutability": "nonpayable",
      "type": "function"
    },
    {
      "inputs": [
        {
          "internalType": "address",
          "name": "operator",
          "type": "address"
        },
        {
          "internalType": "bool",
          "name": "approved",
          "type": "bool"
        }
      ],
      "name": "setApprovalForAll",
      "outputs": [],
      "stateMutability": "nonpayable",
      "type": "function"
    },
    {
      "inputs": [
        {
          "internalType": "uint256",
          "name": "",
          "type": "uint256"
        }
      ],
      "name": "stakingNFTs",
      "outputs": [
        {
          "internalType": "bool",
          "name": "active",
          "type": "bool"
        },
        {
          "internalType": "uint32",
          "name": "start",
          "type": "uint32"
        },
        {
          "internalType": "uint32",
          "name": "end",
          "type": "uint32"
        },
        {
          "internalType": "uint32",
          "name": "lastClaim",
          "type": "uint32"
        },
        {
          "internalType": "uint256",
          "name": "amount",
          "type": "uint256"
        },
        {
          "internalType": "uint256",
          "name": "payoutFactor",
          "type": "uint256"
        },
        {
          "internalType": "address",
          "name": "minter",
          "type": "address"
        }
      ],
      "stateMutability": "view",
      "type": "function"
    },
    {
      "inputs": [
        {
          "internalType": "address",
          "name": "",
          "type": "address"
        }
      ],
      "name": "stakingPartners",
      "outputs": [
        {
          "internalType": "bool",
          "name": "active",
          "type": "bool"
        },
        {
          "internalType": "uint256",
          "name": "bonusFactor",
          "type": "uint256"
        },
        {
          "internalType": "address",
          "name": "signer",
          "type": "address"
        },
        {
          "internalType": "string",
          "name": "name",
          "type": "string"
        },
        {
          "internalType": "string",
          "name": "description",
          "type": "string"
        }
      ],
      "stateMutability": "view",
      "type": "function"
    },
    {
      "inputs": [
        {
          "internalType": "bytes4",
          "name": "interfaceId",
          "type": "bytes4"
        }
      ],
      "name": "supportsInterface",
      "outputs": [
        {
          "internalType": "bool",
          "name": "",
          "type": "bool"
        }
      ],
      "stateMutability": "view",
      "type": "function"
    },
    {
      "inputs": [],
      "name": "symbol",
      "outputs": [
        {
          "internalType": "string",
          "name": "",
          "type": "string"
        }
      ],
      "stateMutability": "view",
      "type": "function"
    },
    {
      "inputs": [],
      "name": "token",
      "outputs": [
        {
          "internalType": "contract IERC20",
          "name": "",
          "type": "address"
        }
      ],
      "stateMutability": "view",
      "type": "function"
    },
    {
      "inputs": [
        {
          "internalType": "uint256",
          "name": "tokenId",
          "type": "uint256"
        }
      ],
      "name": "tokenURI",
      "outputs": [
        {
          "internalType": "string",
          "name": "",
          "type": "string"
        }
      ],
      "stateMutability": "view",
      "type": "function"
    },
    {
      "inputs": [],
      "name": "totalNFTs",
      "outputs": [
        {
          "internalType": "uint256",
          "name": "",
          "type": "uint256"
        }
      ],
      "stateMutability": "view",
      "type": "function"
    },
    {
      "inputs": [
        {
          "internalType": "address",
          "name": "from",
          "type": "address"
        },
        {
          "internalType": "address",
          "name": "to",
          "type": "address"
        },
        {
          "internalType": "uint256",
          "name": "tokenId",
          "type": "uint256"
        }
      ],
      "name": "transferFrom",
      "outputs": [],
      "stateMutability": "nonpayable",
      "type": "function"
    },
    {
      "inputs": [
        {
          "internalType": "address",
          "name": "newOwner",
          "type": "address"
        }
      ],
      "name": "transferOwnership",
      "outputs": [],
      "stateMutability": "nonpayable",
      "type": "function"
    },
    {
      "stateMutability": "payable",
      "type": "receive"
    },
    {
      "inputs": [],
      "name": "toggleActive",
      "outputs": [
        {
          "internalType": "bool",
          "name": "",
          "type": "bool"
        }
      ],
      "stateMutability": "nonpayable",
      "type": "function"
    },
    {
      "inputs": [
        {
          "internalType": "address",
          "name": "_signer",
          "type": "address"
        },
        {
          "internalType": "bool",
          "name": "_active",
          "type": "bool"
        },
        {
          "internalType": "string",
          "name": "_name",
          "type": "string"
        },
        {
          "internalType": "string",
          "name": "_description",
          "type": "string"
        },
        {
          "internalType": "uint256",
          "name": "_bonusFactor",
          "type": "uint256"
        }
      ],
      "name": "setMintingPartner",
      "outputs": [],
      "stateMutability": "nonpayable",
      "type": "function"
    },
    {
      "inputs": [
        {
          "internalType": "uint8",
          "name": "_yearsCount",
          "type": "uint8"
        },
        {
          "internalType": "bool",
          "name": "_active",
          "type": "bool"
        },
        {
          "internalType": "uint256",
          "name": "_tokenFactor",
          "type": "uint256"
        },
        {
          "internalType": "uint256",
          "name": "_signatureBonusMultiplier",
          "type": "uint256"
        }
      ],
      "name": "setConfig",
      "outputs": [],
      "stateMutability": "nonpayable",
      "type": "function"
    },
    {
      "inputs": [
        {
          "internalType": "uint256",
          "name": "_burnFraction",
          "type": "uint256"
        }
      ],
      "name": "setBurnFraction",
      "outputs": [],
      "stateMutability": "nonpayable",
      "type": "function"
    },
    {
      "inputs": [
        {
          "internalType": "uint256",
          "name": "_burnShare",
          "type": "uint256"
        }
      ],
      "name": "setBurnShare",
      "outputs": [],
      "stateMutability": "nonpayable",
      "type": "function"
    },
    {
      "inputs": [
        {
          "internalType": "address",
          "name": "_burnContract",
          "type": "address"
        }
      ],
      "name": "setBurnContract",
      "outputs": [],
      "stateMutability": "nonpayable",
      "type": "function"
    },
    {
      "inputs": [
        {
          "internalType": "uint8",
          "name": "_stakingYears",
          "type": "uint8"
        },
        {
          "internalType": "uint256",
          "name": "_amount",
          "type": "uint256"
        },
        {
          "internalType": "bytes[]",
          "name": "_signatures",
          "type": "bytes[]"
        }
      ],
      "name": "stake",
      "outputs": [
        {
          "internalType": "bool",
          "name": "",
          "type": "bool"
        }
      ],
      "stateMutability": "nonpayable",
      "type": "function"
    },
    {
      "inputs": [
        {
          "internalType": "uint256[]",
          "name": "_nftIds",
          "type": "uint256[]"
        }
      ],
      "name": "claim",
      "outputs": [
        {
          "internalType": "bool",
          "name": "",
          "type": "bool"
        }
      ],
      "stateMutability": "nonpayable",
      "type": "function"
    },
    {
      "inputs": [],
      "name": "burnTokens",
      "outputs": [
        {
          "internalType": "bool",
          "name": "",
          "type": "bool"
        }
      ],
      "stateMutability": "nonpayable",
      "type": "function"
    },
    {
      "inputs": [
        {
          "internalType": "address",
          "name": "_token",
          "type": "address"
        }
      ],
      "name": "rescueTokens",
      "outputs": [],
      "stateMutability": "nonpayable",
      "type": "function"
    },
    {
      "inputs": [
        {
          "internalType": "address",
          "name": "_operator",
          "type": "address"
        },
        {
          "internalType": "address",
          "name": "_from",
          "type": "address"
        },
        {
          "internalType": "uint256",
          "name": "_tokenId",
          "type": "uint256"
        },
        {
          "internalType": "bytes",
          "name": "_data",
          "type": "bytes"
        }
      ],
      "name": "onERC721Received",
      "outputs": [
        {
          "internalType": "bytes4",
          "name": "value",
          "type": "bytes4"
        }
      ],
      "stateMutability": "nonpayable",
      "type": "function"
    }
  ],
  "bytecode": "0x60806040523480156200001157600080fd5b50604051620041993803806200419983398101604081905262000034916200059d565b6040518060400160405280600b81526020016a14dd185ada5b99c813919560aa1b8152506040518060400160405280600381526020016213919560ea1b8152506200008e620000886200013160201b60201c565b62000135565b8151620000a3906001906020850190620004da565b508051620000b9906002906020840190620004da565b5050600780546001600160a01b03808616610100026001600160a81b031990921691909117600117909155600880549184166001600160a01b0319909216919091179055506200010b33600062000185565b505060016009556000600a819055600b819055600c819055600d819055600e55620006e6565b3390565b600080546001600160a01b038381166001600160a01b0319831681178455604051919092169283917f8be0079c531659141344cd1fd0a4f28419497f9722a3daafe3b4186f6b6457e09190a35050565b620001a7828260405180602001604052806000815250620001ab60201b60201c565b5050565b620001b7838362000227565b620001c660008484846200036f565b620002225760405162461bcd60e51b815260206004820152603260248201526000805160206200417983398151915260448201527131b2b4bb32b91034b6b83632b6b2b73a32b960711b60648201526084015b60405180910390fd5b505050565b6001600160a01b0382166200027f5760405162461bcd60e51b815260206004820181905260248201527f4552433732313a206d696e7420746f20746865207a65726f2061646472657373604482015260640162000219565b6000818152600360205260409020546001600160a01b031615620002e65760405162461bcd60e51b815260206004820152601c60248201527f4552433732313a20746f6b656e20616c7265616479206d696e74656400000000604482015260640162000219565b6001600160a01b038216600090815260046020526040812080546001929062000311908490620005d5565b909155505060008181526003602052604080822080546001600160a01b0319166001600160a01b03861690811790915590518392907fddf252ad1be2c89b69c2b068fc378daa952ba7f163c4a11628f55a4df523b3ef908290a45050565b600062000390846001600160a01b0316620004cb60201b62001d961760201c565b15620004bf57604051630a85bd0160e11b81526001600160a01b0385169063150b7a0290620003ca903390899088908890600401620005fc565b6020604051808303816000875af192505050801562000408575060408051601f3d908101601f19168201909252620004059181019062000677565b60015b620004a4573d80801562000439576040519150601f19603f3d011682016040523d82523d6000602084013e6200043e565b606091505b5080516000036200049c5760405162461bcd60e51b815260206004820152603260248201526000805160206200417983398151915260448201527131b2b4bb32b91034b6b83632b6b2b73a32b960711b606482015260840162000219565b805181602001fd5b6001600160e01b031916630a85bd0160e11b149050620004c3565b5060015b949350505050565b6001600160a01b03163b151590565b828054620004e890620006aa565b90600052602060002090601f0160209004810192826200050c576000855562000557565b82601f106200052757805160ff191683800117855562000557565b8280016001018555821562000557579182015b82811115620005575782518255916020019190600101906200053a565b506200056592915062000569565b5090565b5b808211156200056557600081556001016200056a565b80516001600160a01b03811681146200059857600080fd5b919050565b60008060408385031215620005b157600080fd5b620005bc8362000580565b9150620005cc6020840162000580565b90509250929050565b60008219821115620005f757634e487b7160e01b600052601160045260246000fd5b500190565b600060018060a01b038087168352602081871681850152856040850152608060608501528451915081608085015260005b828110156200064b5785810182015185820160a0015281016200062d565b828111156200065e57600060a084870101525b5050601f01601f19169190910160a00195945050505050565b6000602082840312156200068a57600080fd5b81516001600160e01b031981168114620006a357600080fd5b9392505050565b600181811c90821680620006bf57607f821691505b602082108103620006e057634e487b7160e01b600052602260045260246000fd5b50919050565b613a8380620006f66000396000f3fe6080604052600436106102285760003560e01c8063520dc51a1161012357806396cf4feb116100ab578063d84543531161006f578063d845435314610783578063e0fdb1c014610799578063e985e9c5146107b9578063f2fde38b14610802578063fc0c546a1461082257600080fd5b806396cf4feb146106ed578063a22cb4651461070d578063a54b2a731461072d578063b88d4fde14610743578063c87b56dd1461076357600080fd5b806370dcab6b116100f257806370dcab6b1461066f578063715018a61461068f5780638da5cb5b146106a45780638de065b6146106c257806395d89b41146106d857600080fd5b8063520dc51a146105de5780636352211e1461060f5780636ba4c1381461062f57806370a082311461064f57600080fd5b8063150b7a02116101b157806329c68dc11161017557806329c68dc11461050c57806337beafe014610521578063384995cd146105415780633dddb6eb1461056157806342842e0e146105be57600080fd5b8063150b7a021461045d5780631c0973a41461049657806321df6d4a146104b657806323b872dd146104cc5780632518b8b3146104ec57600080fd5b806308003f78116101f857806308003f781461031c578063081812fc14610331578063095ea7b3146103695780630d0e96da1461038957806310c6c1c21461039f57600080fd5b8062ae3bf81461027f57806301ffc9a7146102a157806305bf0a54146102d657806306fdde03146102fa57600080fd5b3661027a5760405162461bcd60e51b815260206004820152601c60248201527f4e6174697665206465706f736974206e6f7420737570706f727465640000000060448201526064015b60405180910390fd5b600080fd5b34801561028b57600080fd5b5061029f61029a36600461311e565b610847565b005b3480156102ad57600080fd5b506102c16102bc36600461314f565b610a5d565b60405190151581526020015b60405180910390f35b3480156102e257600080fd5b506102ec600e5481565b6040519081526020016102cd565b34801561030657600080fd5b5061030f610aaf565b6040516102cd91906131c4565b34801561032857600080fd5b506102c1610b41565b34801561033d57600080fd5b5061035161034c3660046131d7565b610d27565b6040516001600160a01b0390911681526020016102cd565b34801561037557600080fd5b5061029f6103843660046131f0565b610dbc565b34801561039557600080fd5b506102ec60095481565b3480156103ab57600080fd5b506104116103ba3660046131d7565b601160205260009081526040902080546001820154600283015460039093015460ff83169363ffffffff6101008504811694600160281b8104821694600160481b909104909116929091906001600160a01b031687565b60408051971515885263ffffffff968716602089015294861694870194909452939091166060850152608084015260a08301919091526001600160a01b031660c082015260e0016102cd565b34801561046957600080fd5b5061047d6104783660046132d1565b610ed1565b6040516001600160e01b031990911681526020016102cd565b3480156104a257600080fd5b50600854610351906001600160a01b031681565b3480156104c257600080fd5b506102ec600a5481565b3480156104d857600080fd5b5061029f6104e7366004613339565b610f1c565b3480156104f857600080fd5b506102c16105073660046133aa565b610f4d565b34801561051857600080fd5b506102c161144e565b34801561052d57600080fd5b5061029f61053c36600461311e565b611493565b34801561054d57600080fd5b5061029f61055c3660046131d7565b6114df565b34801561056d57600080fd5b506105a161057c36600461347c565b60106020526000908152604090208054600182015460029092015460ff909116919083565b6040805193151584526020840192909252908201526060016102cd565b3480156105ca57600080fd5b5061029f6105d9366004613339565b61157a565b3480156105ea57600080fd5b506105fe6105f936600461311e565b611595565b6040516102cd959493929190613497565b34801561061b57600080fd5b5061035161062a3660046131d7565b6116e4565b34801561063b57600080fd5b506102c161064a3660046134e4565b61175b565b34801561065b57600080fd5b506102ec61066a36600461311e565b61184b565b34801561067b57600080fd5b5061029f61068a366004613583565b6118d2565b34801561069b57600080fd5b5061029f6119ae565b3480156106b057600080fd5b506000546001600160a01b0316610351565b3480156106ce57600080fd5b506102ec600d5481565b3480156106e457600080fd5b5061030f6119e4565b3480156106f957600080fd5b5061029f6107083660046131d7565b6119f3565b34801561071957600080fd5b5061029f6107283660046135c7565b611a8b565b34801561073957600080fd5b506102ec600c5481565b34801561074f57600080fd5b5061029f61075e3660046132d1565b611a9a565b34801561076f57600080fd5b5061030f61077e3660046131d7565b611acc565b34801561078f57600080fd5b506102ec600b5481565b3480156107a557600080fd5b5061029f6107b43660046135fe565b611bb4565b3480156107c557600080fd5b506102c16107d436600461368d565b6001600160a01b03918216600090815260066020908152604080832093909416825291909152205460ff1690565b34801561080e57600080fd5b5061029f61081d36600461311e565b611cfb565b34801561082e57600080fd5b506007546103519061010090046001600160a01b031681565b6000546001600160a01b031633146108715760405162461bcd60e51b8152600401610271906136c0565b6001600160a01b0381166108c75760405162461bcd60e51b815260206004820152601a60248201527f546f6b656e20616464726573732063616e206e6f7420626520300000000000006044820152606401610271565b6040516370a0823160e01b815230600482015281906000906001600160a01b038316906370a0823190602401602060405180830381865afa158015610910573d6000803e3d6000fd5b505050506040513d601f19601f8201168201806040525081019061093491906136f5565b6007549091506001600160a01b0361010090910481169083160361096f57600b54600a546109629190613724565b61096c908261373c565b90505b600081116109bf5760405162461bcd60e51b815260206004820152601c60248201527f4e6f7420656e6f7567682066756e647320746f207472616e73666572000000006044820152606401610271565b60405163a9059cbb60e01b8152336004820152602481018290526000906001600160a01b0384169063a9059cbb906044016020604051808303816000875af1158015610a0f573d6000803e3d6000fd5b505050506040513d601f19601f82011682018060405250810190610a339190613753565b9050600181151514610a575760405162461bcd60e51b815260040161027190613770565b50505050565b60006001600160e01b031982166380ac58cd60e01b1480610a8e57506001600160e01b03198216635b5e139f60e01b145b80610aa957506301ffc9a760e01b6001600160e01b03198316145b92915050565b606060018054610abe90613799565b80601f0160208091040260200160405190810160405280929190818152602001828054610aea90613799565b8015610b375780601f10610b0c57610100808354040283529160200191610b37565b820191906000526020600020905b815481529060010190602001808311610b1a57829003601f168201915b5050505050905090565b6008546000906001600160a01b0316610b9c5760405162461bcd60e51b815260206004820152601a60248201527f4e6f206275726e20636f6e7472616374207370656369666965640000000000006044820152606401610271565b6000670de0b6b3a7640000600e54600c54610bb791906137d3565b610bc19190613808565b9050600081600c54610bd3919061373c565b9050600c54600b6000828254610be9919061373c565b90915550506000600c55600854610c09906001600160a01b031682611da5565b6008546007546040516306888c6760e11b81526101009091046001600160a01b039081166004830152602482018490526000921690630d1118ce906044016020604051808303816000875af1158015610c66573d6000803e3d6000fd5b505050506040513d601f19601f82011682018060405250810190610c8a9190613753565b9050600181151514610cde5760405162461bcd60e51b815260206004820181905260248201527f546f6b656e206275726e696e6720776173206e6f74207375636365737366756c6044820152606401610271565b610ce83384611da5565b60405182815233907fcc16f5dbb4873280815c1ee09dbd06736cffcc184412cf7a71a0fdb75d397ca59060200160405180910390a26001935050505090565b6000818152600360205260408120546001600160a01b0316610da05760405162461bcd60e51b815260206004820152602c60248201527f4552433732313a20617070726f76656420717565727920666f72206e6f6e657860448201526b34b9ba32b73a103a37b5b2b760a11b6064820152608401610271565b506000908152600560205260409020546001600160a01b031690565b6000610dc7826116e4565b9050806001600160a01b0316836001600160a01b031603610e345760405162461bcd60e51b815260206004820152602160248201527f4552433732313a20617070726f76616c20746f2063757272656e74206f776e656044820152603960f91b6064820152608401610271565b336001600160a01b0382161480610e505750610e5081336107d4565b610ec25760405162461bcd60e51b815260206004820152603860248201527f4552433732313a20617070726f76652063616c6c6572206973206e6f74206f7760448201527f6e6572206e6f7220617070726f76656420666f7220616c6c00000000000000006064820152608401610271565b610ecc8383611e46565b505050565b60405162461bcd60e51b815260206004820152601d60248201527f43616e206e6f7420726563656976652045524337323120746f6b656e730000006044820152600090606401610271565b610f263382611eb4565b610f425760405162461bcd60e51b81526004016102719061381c565b610ecc838383611fab565b60075460009060ff161515600114610fa75760405162461bcd60e51b815260206004820152601e60248201527f5374616b696e6720636f6e7472616374206973206e6f742061637469766500006044820152606401610271565b60ff808516600090815260106020526040902054166110085760405162461bcd60e51b815260206004820152601c60248201527f43616e6e6f74207374616b6520666f7220676976656e207965617273000000006044820152606401610271565b600083116110625760405162461bcd60e51b815260206004820152602160248201527f416d6f756e74206e6565647320746f2062652067726561746572207468616e206044820152600360fc1b6064820152608401610271565b600754604051636eb1769f60e11b8152336004820152306024820152849161010090046001600160a01b03169063dd62ed3e90604401602060405180830381865afa1580156110b5573d6000803e3d6000fd5b505050506040513d601f19601f820116820180604052508101906110d991906136f5565b10156111275760405162461bcd60e51b815260206004820152601960248201527f53657420746f6b656e20616c6c6f77616e6365206669727374000000000000006044820152606401610271565b815160009015611397576000835167ffffffffffffffff81111561114d5761114d61321a565b604051908082528060200260200182016040528015611176578160200160208202803683370190505b506040516bffffffffffffffffffffffff193360601b1660208201529091506000906111b390603401604051602081830303815290604052612147565b905060005b85518110156113935760006111e6838884815181106111d9576111d961386d565b6020026020010151612182565b6001600160a01b038082166000818152600f602052604090206002810154939450929091161461124f5760405162461bcd60e51b815260206004820152601460248201527314da59db985d1d5c99481a5cc81a5b9d985b1a5960621b6044820152606401610271565b805460ff166112a05760405162461bcd60e51b815260206004820152601d60248201527f5374616b696e6720706172746e6572206973206e6f74206163746976650000006044820152606401610271565b60005b8381101561134157826001600160a01b03168682815181106112c7576112c761386d565b60200260200101516001600160a01b03160361132f5760405162461bcd60e51b815260206004820152602160248201527f43616e6e6f742075736520706172746e6572206d756c7469706c652074696d656044820152607360f81b6064820152608401610271565b8061133981613883565b9150506112a3565b50818584815181106113555761135561386d565b6001600160a01b0390921660209283029190910190910152600181015461137c9087613724565b95505050808061138b90613883565b9150506111b8565b5050505b6007546040516323b872dd60e01b81523360048201523060248201526044810186905260009161010090046001600160a01b0316906323b872dd906064016020604051808303816000875af11580156113f4573d6000803e3d6000fd5b505050506040513d601f19601f820116820180604052508101906114189190613753565b9050806114375760405162461bcd60e51b815260040161027190613770565b6114428686846121a6565b50600195945050505050565b600080546001600160a01b031633146114795760405162461bcd60e51b8152600401610271906136c0565b506007805460ff19811660ff918216159081179092551690565b6000546001600160a01b031633146114bd5760405162461bcd60e51b8152600401610271906136c0565b600880546001600160a01b0319166001600160a01b0392909216919091179055565b6000546001600160a01b031633146115095760405162461bcd60e51b8152600401610271906136c0565b670de0b6b3a76400008111156115755760405162461bcd60e51b815260206004820152602b60248201527f4275726e206672616374696f6e206d757374206e6f742062652067726561746560448201526a0e440e8d0c2dc4062ca62760ab1b6064820152608401610271565b600d55565b610ecc83838360405180602001604052806000815250611a9a565b600f60205260009081526040902080546001820154600283015460038401805460ff9094169492936001600160a01b0390921692916115d390613799565b80601f01602080910402602001604051908101604052809291908181526020018280546115ff90613799565b801561164c5780601f106116215761010080835404028352916020019161164c565b820191906000526020600020905b81548152906001019060200180831161162f57829003601f168201915b50505050509080600401805461166190613799565b80601f016020809104026020016040519081016040528092919081815260200182805461168d90613799565b80156116da5780601f106116af576101008083540402835291602001916116da565b820191906000526020600020905b8154815290600101906020018083116116bd57829003601f168201915b5050505050905085565b6000818152600360205260408120546001600160a01b031680610aa95760405162461bcd60e51b815260206004820152602960248201527f4552433732313a206f776e657220717565727920666f72206e6f6e657869737460448201526832b73a103a37b5b2b760b91b6064820152608401610271565b6000808251116117a15760405162461bcd60e51b8152602060048201526011602482015270506173736564206e6f204e46542d49447360781b6044820152606401610271565b6000805b83518110156117ef576117d1338583815181106117c4576117c461386d565b6020026020010151612560565b6117db9083613724565b9150806117e781613883565b9150506117a5565b50600081116118385760405162461bcd60e51b8152602060048201526015602482015274436c61696d6564206e6f207061796f75742073756d60581b6044820152606401610271565b6118423382611da5565b50600192915050565b60006001600160a01b0382166118b65760405162461bcd60e51b815260206004820152602a60248201527f4552433732313a2062616c616e636520717565727920666f7220746865207a65604482015269726f206164647265737360b01b6064820152608401610271565b506001600160a01b031660009081526004602052604090205490565b6000546001600160a01b031633146118fc5760405162461bcd60e51b8152600401610271906136c0565b60008460ff16116119605760405162461bcd60e51b815260206004820152602860248201527f43616e206e6f7420736574206120636f6e66696775726174696f6e2077697468604482015267203020796561727360c01b6064820152608401610271565b604080516060810182529315158452602080850193845284820192835260ff95909516600090815260109095529093209151825460ff19169015151782555160018201559051600290910155565b6000546001600160a01b031633146119d85760405162461bcd60e51b8152600401610271906136c0565b6119e2600061283d565b565b606060028054610abe90613799565b6000546001600160a01b03163314611a1d5760405162461bcd60e51b8152600401610271906136c0565b670de0b6b3a7640000811115611a865760405162461bcd60e51b815260206004820152602860248201527f4275726e207368617265206d757374206e6f74206265206772656174657220746044820152670d0c2dc4062ca62760c31b6064820152608401610271565b600e55565b611a9633838361288d565b5050565b611aa43383611eb4565b611ac05760405162461bcd60e51b81526004016102719061381c565b610a578484848461295b565b6000818152600360205260409020546060906001600160a01b0316611b4b5760405162461bcd60e51b815260206004820152602f60248201527f4552433732314d657461646174613a2055524920717565727920666f72206e6f60448201526e3732bc34b9ba32b73a103a37b5b2b760891b6064820152608401610271565b6000611b6260408051602081019091526000815290565b90506000815111611b825760405180602001604052806000815250611bad565b80611b8c8461298e565b604051602001611b9d92919061389c565b6040516020818303038152906040525b9392505050565b6000546001600160a01b03163314611bde5760405162461bcd60e51b8152600401610271906136c0565b6001600160a01b038516611c4e5760405162461bcd60e51b815260206004820152603160248201527f43616e206e6f7420736574206120636f6e66696775726174696f6e20776974686044820152700207369676e65722061646472657373203607c1b6064820152608401610271565b6040805160a081018252851515815260208082018481526001600160a01b03898116848601818152606086018a8152608087018a90526000928352600f8652969091208551815460ff191690151517815592516001840155516002830180546001600160a01b0319169190921617905592518051929392611cd59260038501920190613069565b5060808201518051611cf1916004840191602090910190613069565b5050505050505050565b6000546001600160a01b03163314611d255760405162461bcd60e51b8152600401610271906136c0565b6001600160a01b038116611d8a5760405162461bcd60e51b815260206004820152602660248201527f4f776e61626c653a206e6577206f776e657220697320746865207a65726f206160448201526564647265737360d01b6064820152608401610271565b611d938161283d565b50565b6001600160a01b03163b151590565b60075460405163a9059cbb60e01b81526001600160a01b038481166004830152602482018490526000926101009004169063a9059cbb906044016020604051808303816000875af1158015611dfe573d6000803e3d6000fd5b505050506040513d601f19601f82011682018060405250810190611e229190613753565b9050600181151514610ecc5760405162461bcd60e51b815260040161027190613770565b600081815260056020526040902080546001600160a01b0319166001600160a01b0384169081179091558190611e7b826116e4565b6001600160a01b03167f8c5be1e5ebec7d5bd14f71427d1e84f3dd0314c0f7b2291e5b200ac8c7c3b92560405160405180910390a45050565b6000818152600360205260408120546001600160a01b0316611f2d5760405162461bcd60e51b815260206004820152602c60248201527f4552433732313a206f70657261746f7220717565727920666f72206e6f6e657860448201526b34b9ba32b73a103a37b5b2b760a11b6064820152608401610271565b6000611f38836116e4565b9050806001600160a01b0316846001600160a01b03161480611f735750836001600160a01b0316611f6884610d27565b6001600160a01b0316145b80611fa357506001600160a01b0380821660009081526006602090815260408083209388168352929052205460ff165b949350505050565b826001600160a01b0316611fbe826116e4565b6001600160a01b0316146120225760405162461bcd60e51b815260206004820152602560248201527f4552433732313a207472616e736665722066726f6d20696e636f72726563742060448201526437bbb732b960d91b6064820152608401610271565b6001600160a01b0382166120845760405162461bcd60e51b8152602060048201526024808201527f4552433732313a207472616e7366657220746f20746865207a65726f206164646044820152637265737360e01b6064820152608401610271565b61208f600082611e46565b6001600160a01b03831660009081526004602052604081208054600192906120b890849061373c565b90915550506001600160a01b03821660009081526004602052604081208054600192906120e6908490613724565b909155505060008181526003602052604080822080546001600160a01b0319166001600160a01b0386811691821790925591518493918716917fddf252ad1be2c89b69c2b068fc378daa952ba7f163c4a11628f55a4df523b3ef91a4505050565b6000612153825161298e565b826040516020016121659291906138cb565b604051602081830303815290604052805190602001209050919050565b60008060006121918585612a8f565b9150915061219e81612afd565b509392505050565b60ff83166000818152601060205260408120916121c7906301e13380613926565b63ffffffff1690504260006121dc8383613724565b9050600082905060008860ff16670de0b6b3a764000087600201548961220291906137d3565b61220c9190613808565b876001015461221b9190613724565b61222591906137d3565b9050600061223b82670de0b6b3a7640000613724565b90506040518060e001604052806001151581526020018663ffffffff1681526020018563ffffffff1681526020018463ffffffff1681526020018a8152602001828152602001336001600160a01b031681525060116000600954815260200190815260200160002060008201518160000160006101000a81548160ff02191690831515021790555060208201518160000160016101000a81548163ffffffff021916908363ffffffff16021790555060408201518160000160056101000a81548163ffffffff021916908363ffffffff16021790555060608201518160000160096101000a81548163ffffffff021916908363ffffffff1602179055506080820151816001015560a0820151816002015560c08201518160030160006101000a8154816001600160a01b0302191690836001600160a01b0316021790555090505061238833600954612cb3565b6009805490600061239883613883565b9091555060009050670de0b6b3a76400006123b3838c6137d3565b6123bd9190613808565b905080600a60008282546123d19190613724565b9091555050600d54670de0b6b3a7640000906123ed90836137d3565b6123f79190613808565b600b60008282546124089190613724565b90915550506007546040516370a0823160e01b815230600482015260009161010090046001600160a01b0316906370a0823190602401602060405180830381865afa15801561245b573d6000803e3d6000fd5b505050506040513d601f19601f8201168201806040525081019061247f91906136f5565b9050600b54600a546124919190613724565b81116124df5760405162461bcd60e51b815260206004820152601d60248201527f4e6f7420656e6f75676820746f6b656e7320696e20636f6e74726163740000006044820152606401610271565b336001600160a01b03167f8d478e4d807a3a60c96419251f734899f05e5e2cd33a50ee9af2fe86c982bf728d8d868b8b600160095461251e919061373c565b6040805160ff90971687526020870195909552938501929092526060840152608083015260a082015260c00160405180910390a2505050505050505050505050565b6000826001600160a01b0316612575836116e4565b6001600160a01b0316146125c35760405162461bcd60e51b8152602060048201526015602482015274165bdd48191bdb89dd081bdddb881d1a1948139195605a1b6044820152606401610271565b6000828152601160205260409020805460ff166126165760405162461bcd60e51b81526020600482015260116024820152704e4654206973206e6f742061637469766560781b6044820152606401610271565b805463ffffffff600160281b82048116600160481b909204161061267c5760405162461bcd60e51b815260206004820152601960248201527f4e465420697320636f6d706c6574656c7920636c61696d6564000000000000006044820152606401610271565b805463ffffffff42811691600160281b9004168111156126a757508054600160281b900463ffffffff165b81546000906126ca9063ffffffff6101008204811691600160281b900416613952565b6002840154845463ffffffff9283169350600092670de0b6b3a764000092859290916126fe91600160481b9004168761373c565b876001015461270d91906137d3565b61271791906137d3565b6127219190613808565b61272b9190613808565b90506000670de0b6b3a7640000600d548361274691906137d3565b6127509190613808565b85546cffffffff0000000000000000001916600160481b63ffffffff871602178655600a8054919250839160009061278990849061373c565b909155505060408051838152602081018690529081018890526001600160a01b038916907f45c072aa05b9853b5a993de7a28bc332ee01404a628cec1a23ce0f659f842ef19060600160405180910390a280600c60008282546127ec9190613724565b9091555050816128325760405162461bcd60e51b815260206004820152601160248201527010db185a5b5959081b9bc81c185e5bdd5d607a1b6044820152606401610271565b509695505050505050565b600080546001600160a01b038381166001600160a01b0319831681178455604051919092169283917f8be0079c531659141344cd1fd0a4f28419497f9722a3daafe3b4186f6b6457e09190a35050565b816001600160a01b0316836001600160a01b0316036128ee5760405162461bcd60e51b815260206004820152601960248201527f4552433732313a20617070726f766520746f2063616c6c6572000000000000006044820152606401610271565b6001600160a01b03838116600081815260066020908152604080832094871680845294825291829020805460ff191686151590811790915591519182527f17307eab39ab6107e8899845ad3d59bd9653f200f220920489ca2b5937696c31910160405180910390a3505050565b612966848484611fab565b61297284848484612ccd565b610a575760405162461bcd60e51b815260040161027190613977565b6060816000036129b55750506040805180820190915260018152600360fc1b602082015290565b8160005b81156129df57806129c981613883565b91506129d89050600a83613808565b91506129b9565b60008167ffffffffffffffff8111156129fa576129fa61321a565b6040519080825280601f01601f191660200182016040528015612a24576020820181803683370190505b5090505b8415611fa357612a3960018361373c565b9150612a46600a866139c9565b612a51906030613724565b60f81b818381518110612a6657612a6661386d565b60200101906001600160f81b031916908160001a905350612a88600a86613808565b9450612a28565b6000808251604103612ac55760208301516040840151606085015160001a612ab987828585612dce565b94509450505050612af6565b8251604003612aee5760208301516040840151612ae3868383612ebb565b935093505050612af6565b506000905060025b9250929050565b6000816004811115612b1157612b116139dd565b03612b195750565b6001816004811115612b2d57612b2d6139dd565b03612b7a5760405162461bcd60e51b815260206004820152601860248201527f45434453413a20696e76616c6964207369676e617475726500000000000000006044820152606401610271565b6002816004811115612b8e57612b8e6139dd565b03612bdb5760405162461bcd60e51b815260206004820152601f60248201527f45434453413a20696e76616c6964207369676e6174757265206c656e677468006044820152606401610271565b6003816004811115612bef57612bef6139dd565b03612c475760405162461bcd60e51b815260206004820152602260248201527f45434453413a20696e76616c6964207369676e6174757265202773272076616c604482015261756560f01b6064820152608401610271565b6004816004811115612c5b57612c5b6139dd565b03611d935760405162461bcd60e51b815260206004820152602260248201527f45434453413a20696e76616c6964207369676e6174757265202776272076616c604482015261756560f01b6064820152608401610271565b611a96828260405180602001604052806000815250612ef4565b60006001600160a01b0384163b15612dc357604051630a85bd0160e11b81526001600160a01b0385169063150b7a0290612d119033908990889088906004016139f3565b6020604051808303816000875af1925050508015612d4c575060408051601f3d908101601f19168201909252612d4991810190613a30565b60015b612da9573d808015612d7a576040519150601f19603f3d011682016040523d82523d6000602084013e612d7f565b606091505b508051600003612da15760405162461bcd60e51b815260040161027190613977565b805181602001fd5b6001600160e01b031916630a85bd0160e11b149050611fa3565b506001949350505050565b6000807f7fffffffffffffffffffffffffffffff5d576e7357a4501ddfe92f46681b20a0831115612e055750600090506003612eb2565b8460ff16601b14158015612e1d57508460ff16601c14155b15612e2e5750600090506004612eb2565b6040805160008082526020820180845289905260ff881692820192909252606081018690526080810185905260019060a0016020604051602081039080840390855afa158015612e82573d6000803e3d6000fd5b5050604051601f1901519150506001600160a01b038116612eab57600060019250925050612eb2565b9150600090505b94509492505050565b6000806001600160ff1b03831681612ed860ff86901c601b613724565b9050612ee687828885612dce565b935093505050935093915050565b612efe8383612f27565b612f0b6000848484612ccd565b610ecc5760405162461bcd60e51b815260040161027190613977565b6001600160a01b038216612f7d5760405162461bcd60e51b815260206004820181905260248201527f4552433732313a206d696e7420746f20746865207a65726f20616464726573736044820152606401610271565b6000818152600360205260409020546001600160a01b031615612fe25760405162461bcd60e51b815260206004820152601c60248201527f4552433732313a20746f6b656e20616c7265616479206d696e746564000000006044820152606401610271565b6001600160a01b038216600090815260046020526040812080546001929061300b908490613724565b909155505060008181526003602052604080822080546001600160a01b0319166001600160a01b03861690811790915590518392907fddf252ad1be2c89b69c2b068fc378daa952ba7f163c4a11628f55a4df523b3ef908290a45050565b82805461307590613799565b90600052602060002090601f01602090048101928261309757600085556130dd565b82601f106130b057805160ff19168380011785556130dd565b828001600101855582156130dd579182015b828111156130dd5782518255916020019190600101906130c2565b506130e99291506130ed565b5090565b5b808211156130e957600081556001016130ee565b80356001600160a01b038116811461311957600080fd5b919050565b60006020828403121561313057600080fd5b611bad82613102565b6001600160e01b031981168114611d9357600080fd5b60006020828403121561316157600080fd5b8135611bad81613139565b60005b8381101561318757818101518382015260200161316f565b83811115610a575750506000910152565b600081518084526131b081602086016020860161316c565b601f01601f19169290920160200192915050565b602081526000611bad6020830184613198565b6000602082840312156131e957600080fd5b5035919050565b6000806040838503121561320357600080fd5b61320c83613102565b946020939093013593505050565b634e487b7160e01b600052604160045260246000fd5b604051601f8201601f1916810167ffffffffffffffff811182821017156132595761325961321a565b604052919050565b600082601f83011261327257600080fd5b813567ffffffffffffffff81111561328c5761328c61321a565b61329f601f8201601f1916602001613230565b8181528460208386010111156132b457600080fd5b816020850160208301376000918101602001919091529392505050565b600080600080608085870312156132e757600080fd5b6132f085613102565b93506132fe60208601613102565b925060408501359150606085013567ffffffffffffffff81111561332157600080fd5b61332d87828801613261565b91505092959194509250565b60008060006060848603121561334e57600080fd5b61335784613102565b925061336560208501613102565b9150604084013590509250925092565b803560ff8116811461311957600080fd5b600067ffffffffffffffff8211156133a0576133a061321a565b5060051b60200190565b6000806000606084860312156133bf57600080fd5b6133c884613375565b92506020808501359250604085013567ffffffffffffffff808211156133ed57600080fd5b818701915087601f83011261340157600080fd5b813561341461340f82613386565b613230565b81815260059190911b8301840190848101908a83111561343357600080fd5b8585015b8381101561346b5780358581111561344f5760008081fd5b61345d8d89838a0101613261565b845250918601918601613437565b508096505050505050509250925092565b60006020828403121561348e57600080fd5b611bad82613375565b851515815284602082015260018060a01b038416604082015260a0606082015260006134c660a0830185613198565b82810360808401526134d88185613198565b98975050505050505050565b600060208083850312156134f757600080fd5b823567ffffffffffffffff81111561350e57600080fd5b8301601f8101851361351f57600080fd5b803561352d61340f82613386565b81815260059190911b8201830190838101908783111561354c57600080fd5b928401925b8284101561356a57833582529284019290840190613551565b979650505050505050565b8015158114611d9357600080fd5b6000806000806080858703121561359957600080fd5b6135a285613375565b935060208501356135b281613575565b93969395505050506040820135916060013590565b600080604083850312156135da57600080fd5b6135e383613102565b915060208301356135f381613575565b809150509250929050565b600080600080600060a0868803121561361657600080fd5b61361f86613102565b9450602086013561362f81613575565b9350604086013567ffffffffffffffff8082111561364c57600080fd5b61365889838a01613261565b9450606088013591508082111561366e57600080fd5b5061367b88828901613261565b95989497509295608001359392505050565b600080604083850312156136a057600080fd5b6136a983613102565b91506136b760208401613102565b90509250929050565b6020808252818101527f4f776e61626c653a2063616c6c6572206973206e6f7420746865206f776e6572604082015260600190565b60006020828403121561370757600080fd5b5051919050565b634e487b7160e01b600052601160045260246000fd5b600082198211156137375761373761370e565b500190565b60008282101561374e5761374e61370e565b500390565b60006020828403121561376557600080fd5b8151611bad81613575565b6020808252600f908201526e151c985b9cd9995c8819985a5b1959608a1b604082015260600190565b600181811c908216806137ad57607f821691505b6020821081036137cd57634e487b7160e01b600052602260045260246000fd5b50919050565b60008160001904831182151516156137ed576137ed61370e565b500290565b634e487b7160e01b600052601260045260246000fd5b600082613817576138176137f2565b500490565b60208082526031908201527f4552433732313a207472616e736665722063616c6c6572206973206e6f74206f6040820152701ddb995c881b9bdc88185c1c1c9bdd9959607a1b606082015260800190565b634e487b7160e01b600052603260045260246000fd5b6000600182016138955761389561370e565b5060010190565b600083516138ae81846020880161316c565b8351908301906138c281836020880161316c565b01949350505050565b7f19457468657265756d205369676e6564204d6573736167653a0a00000000000081526000835161390381601a85016020880161316c565b83519083019061391a81601a84016020880161316c565b01601a01949350505050565b600063ffffffff808316818516818304811182151516156139495761394961370e565b02949350505050565b600063ffffffff8381169083168181101561396f5761396f61370e565b039392505050565b60208082526032908201527f4552433732313a207472616e7366657220746f206e6f6e20455243373231526560408201527131b2b4bb32b91034b6b83632b6b2b73a32b960711b606082015260800190565b6000826139d8576139d86137f2565b500690565b634e487b7160e01b600052602160045260246000fd5b6001600160a01b0385811682528416602082015260408101839052608060608201819052600090613a2690830184613198565b9695505050505050565b600060208284031215613a4257600080fd5b8151611bad8161313956fea26469706673582212206e2b7fb3e1d02fe61adfb0ea51b25598d98651e972b3288b320162e54d1a84d564736f6c634300080d00334552433732313a207472616e7366657220746f206e6f6e204552433732315265",
  "immutableReferences": {},
  "source": "//SPDX-License-Identifier: UNLICENSED\r\n\r\nimport \"@openzeppelin/contracts/utils/cryptography/ECDSA.sol\";\r\nimport \"@openzeppelin/contracts/token/ERC20/IERC20.sol\";\r\nimport \"@openzeppelin/contracts/access/Ownable.sol\";\r\nimport \"@openzeppelin/contracts/token/ERC721/ERC721.sol\";\r\n\r\npragma solidity ^0.8.10;\r\n\r\ninterface Burner {\r\n    function burnTokens(address token, uint256 amount) external returns (bool);\r\n}\r\n\r\ncontract Minting is Ownable, ERC721, IERC721Receiver {\r\n\r\n    struct Config {\r\n        bool active;\r\n        uint256 tokenFactor;\r\n        uint256 signatureBonusMultiplier;\r\n    }\r\n\r\n    struct MintingPartner {\r\n        bool active;\r\n        uint256 bonusFactor;\r\n        address signer;\r\n        string name;\r\n        string description;\r\n    }\r\n\r\n    struct MintingNFT {\r\n        bool active;\r\n        uint32 start;\r\n        uint32 end;\r\n        uint32 lastClaim;\r\n        uint256 amount;\r\n        uint256 payoutFactor;\r\n        address minter;\r\n    }\r\n\r\n    bool private active;\r\n\r\n    modifier isActive {\r\n        require(active == true, \"Minting contract is not active\");\r\n        _;\r\n    }\r\n\r\n    IERC20 public token;\r\n    Burner public burnContract;\r\n\r\n    uint256 public totalNFTs;\r\n    uint256 public remainingPayout;\r\n    uint256 public remainingBurn;\r\n    uint256 public burnPool;\r\n    uint256 public burnFraction;\r\n    uint256 public burnShare;\r\n\r\n    mapping(address => MintingPartner) public stakingPartners;\r\n    mapping(uint8 => Config) public configurations;\r\n    mapping(uint256 => MintingNFT) public stakingNFTs;\r\n\r\n    event Stake(uint8 yearsCount, address indexed sender, uint256 amount, uint256 payoutFactor, uint256 start, uint256 end, uint256 nftId);\r\n    event Claim(address indexed sender, uint256 amount, uint256 claimTime, uint256 nftId);\r\n    event Burn(address indexed sender, uint256 amount);\r\n\r\n    constructor(address _token, address _burnContract)\r\n    ERC721(\"Minting NFT\", \"NFT\") {\r\n        active = true;\r\n\r\n        token = IERC20(_token);\r\n        burnContract = Burner(_burnContract);\r\n\r\n        _safeMint(msg.sender, 0);\r\n\r\n        totalNFTs = 1;\r\n        remainingPayout = 0;\r\n        remainingBurn = 0;\r\n        burnPool = 0;\r\n        burnFraction = 0;\r\n        burnShare = 0;\r\n    }\r\n\r\n    receive() external payable {\r\n        revert(\"Native deposit not supported\");\r\n    }\r\n\r\n    function toggleActive()\r\n    public\r\n    onlyOwner\r\n    returns (bool) {\r\n        active = !active;\r\n        return active;\r\n    }\r\n\r\n    function setMintingPartner(\r\n        address _signer,\r\n        bool _active,\r\n        string memory _name,\r\n        string memory _description,\r\n        uint256 _bonusFactor\r\n    )\r\n    public\r\n    onlyOwner {\r\n        require(_signer != address(0), \"Can not set a configuration with signer address 0\");\r\n        stakingPartners[_signer] = MintingPartner(_active, _bonusFactor, _signer, _name, _description);\r\n    }\r\n\r\n    function setConfig(\r\n        uint8 _yearsCount,\r\n        bool _active,\r\n        uint256 _tokenFactor,\r\n        uint256 _signatureBonusMultiplier\r\n    )\r\n    public\r\n    onlyOwner {\r\n        require(_yearsCount > 0, \"Can not set a configuration with 0 years\");\r\n        configurations[_yearsCount] = Config(_active, _tokenFactor, _signatureBonusMultiplier);\r\n    }\r\n\r\n    function setBurnFraction(uint256 _burnFraction)\r\n    public\r\n    onlyOwner {\r\n        require(_burnFraction <= 1e18, \"Burn fraction must not be greater than 1e18\");\r\n        burnFraction = _burnFraction;\r\n    }\r\n\r\n    function setBurnShare(uint256 _burnShare)\r\n    public\r\n    onlyOwner {\r\n        require(_burnShare <= 1e18, \"Burn share must not be greater than 1e18\");\r\n        burnShare = _burnShare;\r\n    }\r\n\r\n    function setBurnContract(address _burnContract)\r\n    public\r\n    onlyOwner {\r\n        burnContract = Burner(_burnContract);\r\n    }\r\n\r\n    function stake(uint8 _stakingYears, uint256 _amount, bytes[] memory _signatures)\r\n    external\r\n    isActive\r\n    returns (bool) {\r\n        require(configurations[_stakingYears].active, \"Cannot stake for given years\");\r\n        require(_amount > 0, \"Amount needs to be greater than 0\");\r\n        require(token.allowance(msg.sender, address(this)) >= _amount, \"Set token allowance first\");\r\n\r\n        uint256 signerFactor = 0;\r\n        if (_signatures.length > 0) {\r\n            address[] memory activePartners = new address[](_signatures.length);\r\n\r\n            bytes32 addressHash = ECDSA.toEthSignedMessageHash(abi.encodePacked(msg.sender));\r\n            for (uint i = 0; i < _signatures.length; i++) {\r\n                address recoveredSigner = ECDSA.recover(addressHash, _signatures[i]);\r\n\r\n                MintingPartner storage partner = stakingPartners[recoveredSigner];\r\n                require(partner.signer == recoveredSigner, \"Signature is invalid\");\r\n                require(partner.active, \"Minting partner is not active\");\r\n\r\n                for (uint j = 0; j < i; j++) {\r\n                    require(activePartners[j] != recoveredSigner, \"Cannot use partner multiple times\");\r\n                }\r\n                activePartners[i] = recoveredSigner;\r\n                signerFactor += partner.bonusFactor;\r\n            }\r\n        }\r\n\r\n        bool successTx = token.transferFrom(msg.sender, address(this), _amount);\r\n        require(successTx, \"Transfer failed\");\r\n\r\n        _stake(_stakingYears, _amount, signerFactor);\r\n\r\n        return true;\r\n    }\r\n\r\n    function _stake(\r\n        uint8 _years,\r\n        uint256 _amount,\r\n        uint256 _signerFactor\r\n    ) internal {\r\n        Config storage c = configurations[_years];\r\n\r\n        uint256 duration = _years * 365 days;\r\n\r\n        uint256 start = block.timestamp;\r\n        uint256 end = start + duration;\r\n        uint256 lastClaim = start;\r\n\r\n        uint256 bonusFactor = (c.tokenFactor + _signerFactor * c.signatureBonusMultiplier / 1e18) * _years;\r\n        uint256 payoutFactor = 1e18 + bonusFactor;\r\n\r\n        stakingNFTs[totalNFTs] = MintingNFT(true, uint32(start), uint32(end), uint32(lastClaim), _amount, payoutFactor, msg.sender);\r\n        _safeMint(msg.sender, totalNFTs);\r\n\r\n        totalNFTs++;\r\n        uint256 payout = _amount * payoutFactor / 1e18;\r\n        remainingPayout += payout;\r\n        remainingBurn += payout * burnFraction / 1e18;\r\n\r\n        uint256 balance = token.balanceOf(address(this));\r\n        require(balance > (remainingPayout + remainingBurn), \"Not enough tokens in contract\");\r\n\r\n        emit Stake(_years, msg.sender, _amount, payoutFactor, start, end, totalNFTs - 1);\r\n    }\r\n\r\n    function claim(uint256[] memory _nftIds)\r\n    public\r\n    returns (bool) {\r\n        require(_nftIds.length > 0, \"Passed no NFT-IDs\");\r\n        uint256 payout = 0;\r\n\r\n        for (uint i = 0; i < _nftIds.length; i++) {\r\n            payout += _claim(msg.sender, _nftIds[i]);\r\n        }\r\n\r\n        require(payout > 0, \"Claimed no payout sum\");\r\n\r\n        _safeTransfer(msg.sender, payout);\r\n        return true;\r\n    }\r\n\r\n    function _claim(address _sender, uint256 _nftId)\r\n    internal\r\n    returns (uint256){\r\n        require(ownerOf(_nftId) == _sender, \"You don't own the NFT\");\r\n\r\n        MintingNFT storage nft = stakingNFTs[_nftId];\r\n        require(nft.active, \"NFT is not active\");\r\n        require(nft.lastClaim < nft.end, \"NFT is completely claimed\");\r\n\r\n        uint256 claimTime = uint32(block.timestamp);\r\n        if (claimTime > nft.end)\r\n            claimTime = nft.end;\r\n\r\n        uint256 duration = nft.end - nft.start;\r\n        uint256 claimAmount = nft.amount * (claimTime - nft.lastClaim) * nft.payoutFactor / duration / 1e18;\r\n        uint256 burnAmount = claimAmount * burnFraction / 1e18;\r\n\r\n        nft.lastClaim = uint32(claimTime);\r\n\r\n        remainingPayout -= claimAmount;\r\n\r\n        emit Claim(_sender, claimAmount, claimTime, _nftId);\r\n\r\n        burnPool += burnAmount;\r\n\r\n        require(claimAmount > 0, \"Claimed no payout\");\r\n        return claimAmount;\r\n    }\r\n\r\n    function burnTokens()\r\n    public\r\n    returns (bool) {\r\n        require(address(burnContract) != address(0), \"No burn contract specified\");\r\n\r\n        uint256 reward = burnPool * burnShare / 1e18;\r\n        uint256 burnAmount = burnPool - reward;\r\n\r\n        remainingBurn -= burnPool;\r\n        burnPool = 0;\r\n\r\n        _safeTransfer(address(burnContract), burnAmount);\r\n\r\n        bool burnSuccess = burnContract.burnTokens(address(token), burnAmount);\r\n        require(burnSuccess == true, \"Token burning was not successful\");\r\n\r\n        _safeTransfer(msg.sender, reward);\r\n\r\n        emit Burn(msg.sender, burnAmount);\r\n        return true;\r\n    }\r\n\r\n    function _safeTransfer(address _to, uint256 _amount)\r\n    internal {\r\n        bool success = token.transfer(_to, _amount);\r\n        require(success == true, \"Transfer failed\");\r\n    }\r\n\r\n    function rescueTokens(address _token)\r\n    public\r\n    onlyOwner {\r\n        require(_token != address(0), \"Token address can not be 0\");\r\n\r\n        IERC20 transferToken = IERC20(_token);\r\n        uint256 amount = transferToken.balanceOf(address(this));\r\n\r\n        if (transferToken == token) {\r\n            amount -= (remainingPayout + remainingBurn);\r\n        }\r\n\r\n        require(amount > 0, \"Not enough funds to transfer\");\r\n\r\n        bool success = transferToken.transfer(msg.sender, amount);\r\n        require(success == true, \"Transfer failed\");\r\n    }\r\n\r\n    function onERC721Received(address _operator, address _from, uint256 _tokenId, bytes memory _data)\r\n    external\r\n    returns (bytes4 value) {\r\n        revert('Can not receive ERC721 tokens');\r\n    }\r\n}\r\n",
  "sourcePath": "/home/chrl/workspace/Christian/avinoc-staking/contracts/MintingV2.sol",
  "compiler": {
    "name": "solc",
    "version": "0.8.13+commit.abaa5c0e.Emscripten.clang"
  },
  "schemaVersion": "3.4.4",
  "updatedAt": "2022-03-16T20:45:06.635Z",
  "devdoc": {
    "kind": "dev",
    "methods": {
      "approve(address,uint256)": {
        "details": "See {IERC721-approve}."
      },
      "balanceOf(address)": {
        "details": "See {IERC721-balanceOf}."
      },
      "getApproved(uint256)": {
        "details": "See {IERC721-getApproved}."
      },
      "isApprovedForAll(address,address)": {
        "details": "See {IERC721-isApprovedForAll}."
      },
      "name()": {
        "details": "See {IERC721Metadata-name}."
      },
      "owner()": {
        "details": "Returns the address of the current owner."
      },
      "ownerOf(uint256)": {
        "details": "See {IERC721-ownerOf}."
      },
      "renounceOwnership()": {
        "details": "Leaves the contract without owner. It will not be possible to call `onlyOwner` functions anymore. Can only be called by the current owner. NOTE: Renouncing ownership will leave the contract without an owner, thereby removing any functionality that is only available to the owner."
      },
      "safeTransferFrom(address,address,uint256)": {
        "details": "See {IERC721-safeTransferFrom}."
      },
      "safeTransferFrom(address,address,uint256,bytes)": {
        "details": "See {IERC721-safeTransferFrom}."
      },
      "setApprovalForAll(address,bool)": {
        "details": "See {IERC721-setApprovalForAll}."
      },
      "supportsInterface(bytes4)": {
        "details": "See {IERC165-supportsInterface}."
      },
      "symbol()": {
        "details": "See {IERC721Metadata-symbol}."
      },
      "tokenURI(uint256)": {
        "details": "See {IERC721Metadata-tokenURI}."
      },
      "transferFrom(address,address,uint256)": {
        "details": "See {IERC721-transferFrom}."
      },
      "transferOwnership(address)": {
        "details": "Transfers ownership of the contract to a new account (`newOwner`). Can only be called by the current owner."
      }
    },
    "version": 1
  },
  "userdoc": {
    "kind": "user",
    "methods": {},
    "version": 1
  }
}